{
  "contractName": "Auction",
  "abi": [
    {
      "inputs": [],
      "stateMutability": "nonpayable",
      "type": "constructor"
    },
    {
      "inputs": [],
      "name": "auction_finished",
      "outputs": [
        {
          "internalType": "uint256",
          "name": "",
          "type": "uint256"
        }
      ],
      "stateMutability": "view",
      "type": "function",
      "constant": true
    },
    {
      "inputs": [],
      "name": "highestBid",
      "outputs": [
        {
          "internalType": "uint256",
          "name": "",
          "type": "uint256"
        }
      ],
      "stateMutability": "view",
      "type": "function",
      "constant": true
    },
    {
      "inputs": [],
      "name": "highestBidder",
      "outputs": [
        {
          "internalType": "address",
          "name": "",
          "type": "address"
        }
      ],
      "stateMutability": "view",
      "type": "function",
      "constant": true
    },
    {
      "inputs": [
        {
          "internalType": "address",
          "name": "",
          "type": "address"
        }
      ],
      "name": "userBalances",
      "outputs": [
        {
          "internalType": "uint256",
          "name": "",
          "type": "uint256"
        }
      ],
      "stateMutability": "view",
      "type": "function",
      "constant": true
    },
    {
      "stateMutability": "payable",
      "type": "receive",
      "payable": true
    },
    {
      "inputs": [],
      "name": "bid",
      "outputs": [],
      "stateMutability": "payable",
      "type": "function",
      "payable": true
    },
    {
      "inputs": [],
      "name": "withdraw",
      "outputs": [],
      "stateMutability": "payable",
      "type": "function",
      "payable": true
    },
    {
      "inputs": [],
      "name": "canWithdraw",
      "outputs": [
        {
          "internalType": "bool",
          "name": "",
          "type": "bool"
        }
      ],
      "stateMutability": "view",
      "type": "function",
      "constant": true
    }
  ],
  "bytecode": "0x608060405234801561001057600080fd5b5033600360006101000a81548173ffffffffffffffffffffffffffffffffffffffff021916908373ffffffffffffffffffffffffffffffffffffffff160217905550600360009054906101000a900473ffffffffffffffffffffffffffffffffffffffff166000806101000a81548173ffffffffffffffffffffffffffffffffffffffff021916908373ffffffffffffffffffffffffffffffffffffffff16021790555060006001819055506000600481905550610976806100d36000396000f3fe6080604052600436106100745760003560e01c806391f901571161004e57806391f90157146100d1578063990f6e1c146100fc578063b51459fe14610127578063d57bde79146101525761007b565b80631998aeef1461008057806326224c641461008a5780633ccfd60b146100c75761007b565b3661007b57005b600080fd5b61008861017d565b005b34801561009657600080fd5b506100b160048036038101906100ac9190610699565b61036c565b6040516100be91906107ee565b60405180910390f35b6100cf610384565b005b3480156100dd57600080fd5b506100e6610637565b6040516100f39190610758565b60405180910390f35b34801561010857600080fd5b5061011161065b565b60405161011e91906107ee565b60405180910390f35b34801561013357600080fd5b5061013c610661565b6040516101499190610773565b60405180910390f35b34801561015e57600080fd5b5061016761067e565b60405161017491906107ee565b60405180910390f35b60015434116101c1576040517f08c379a00000000000000000000000000000000000000000000000000000000081526004016101b89061078e565b60405180910390fd5b600260003373ffffffffffffffffffffffffffffffffffffffff1673ffffffffffffffffffffffffffffffffffffffff1681526020019081526020016000205434111561028f573373ffffffffffffffffffffffffffffffffffffffff166108fc600260003373ffffffffffffffffffffffffffffffffffffffff1673ffffffffffffffffffffffffffffffffffffffff168152602001908152602001600020549081150290604051600060405180830381858888f1935050505015801561028d573d6000803e3d6000fd5b505b34600260003373ffffffffffffffffffffffffffffffffffffffff1673ffffffffffffffffffffffffffffffffffffffff168152602001908152602001600020819055506000600260003373ffffffffffffffffffffffffffffffffffffffff1673ffffffffffffffffffffffffffffffffffffffff1681526020019081526020016000205490506001548111156103695780600181905550336000806101000a81548173ffffffffffffffffffffffffffffffffffffffff021916908373ffffffffffffffffffffffffffffffffffffffff1602179055505b50565b60026020528060005260406000206000915090505481565b6000600154116103c9576040517f08c379a00000000000000000000000000000000000000000000000000000000081526004016103c0906107ce565b60405180910390fd5b60008054906101000a900473ffffffffffffffffffffffffffffffffffffffff1673ffffffffffffffffffffffffffffffffffffffff163373ffffffffffffffffffffffffffffffffffffffff161415610458576040517f08c379a000000000000000000000000000000000000000000000000000000000815260040161044f906107ae565b60405180910390fd5b600360009054906101000a900473ffffffffffffffffffffffffffffffffffffffff1673ffffffffffffffffffffffffffffffffffffffff163373ffffffffffffffffffffffffffffffffffffffff16141561055a573373ffffffffffffffffffffffffffffffffffffffff166108fc600260008060009054906101000a900473ffffffffffffffffffffffffffffffffffffffff1673ffffffffffffffffffffffffffffffffffffffff1673ffffffffffffffffffffffffffffffffffffffff168152602001908152602001600020549081150290604051600060405180830381858888f19350505050158015610554573d6000803e3d6000fd5b50610635565b60008054906101000a900473ffffffffffffffffffffffffffffffffffffffff1673ffffffffffffffffffffffffffffffffffffffff163373ffffffffffffffffffffffffffffffffffffffff1614610634573373ffffffffffffffffffffffffffffffffffffffff166108fc600260003373ffffffffffffffffffffffffffffffffffffffff1673ffffffffffffffffffffffffffffffffffffffff168152602001908152602001600020549081150290604051600060405180830381858888f19350505050158015610632573d6000803e3d6000fd5b505b5b565b60008054906101000a900473ffffffffffffffffffffffffffffffffffffffff1681565b60045481565b6000806001541115610676576001905061067b565b600090505b90565b60015481565b60008135905061069381610929565b92915050565b6000602082840312156106ab57600080fd5b60006106b984828501610684565b91505092915050565b6106cb8161081a565b82525050565b6106da8161082c565b82525050565b60006106ed602783610809565b91506106f882610862565b604082019050919050565b6000610710601e83610809565b915061071b826108b1565b602082019050919050565b6000610733602983610809565b915061073e826108da565b604082019050919050565b61075281610858565b82525050565b600060208201905061076d60008301846106c2565b92915050565b600060208201905061078860008301846106d1565b92915050565b600060208201905081810360008301526107a7816106e0565b9050919050565b600060208201905081810360008301526107c781610703565b9050919050565b600060208201905081810360008301526107e781610726565b9050919050565b60006020820190506108036000830184610749565b92915050565b600082825260208201905092915050565b600061082582610838565b9050919050565b60008115159050919050565b600073ffffffffffffffffffffffffffffffffffffffff82169050919050565b6000819050919050565b7f596f7572206f66666572206973206c657373207468616e20746865206869676860008201527f6573742062696400000000000000000000000000000000000000000000000000602082015250565b7f48696768657374204269646465722063616e6e6f742077697468647261770000600082015250565b7f42696420697320657175616c20746f207a65726f2c206e6f7468696e6720746f60008201527f2077697468647261770000000000000000000000000000000000000000000000602082015250565b6109328161081a565b811461093d57600080fd5b5056fea2646970667358221220c02532de65376ddd9041c9ff6d9fcadb7b9e6183562bc114902d745788e788f764736f6c63430008030033",
  "immutableReferences": {},
  "source": "//SPDX-License-Identifier: GPL-3.0\npragma solidity >= 0.7.0 <= 0.8.3;\n\ncontract Auction {\n    \n    address public highestBidder; // The highest bidder's address \n    uint public highestBid; // The amount of the highest bid  \n    mapping(address => uint) public  userBalances; // mapping for the amount to return \n    address owner;\n    uint public auction_finished;\n    \n    constructor() {\n        owner = msg.sender;\n        highestBidder = owner;\n        highestBid = 0;\n        auction_finished = 0;\n    }\n    \n    \n    modifier onlyOwner(){\n        require(msg.sender == owner,\"Not the owner\");\n        _;\n    }\n    \n    \n    function bid() public payable{\n        //Function to process bid\n        require(msg.value > highestBid,\"Your offer is less than the highest bid\");\n        if(msg.value > userBalances[msg.sender]){\n            payable(msg.sender).transfer(userBalances[msg.sender]);    \n        }\n        \n        userBalances[msg.sender] =  msg.value;\n        uint newBid = userBalances[msg.sender] ;\n        \n        if(newBid > highestBid){\n            highestBid = newBid;\n            highestBidder = msg.sender; \n        }\n    }\n    \n    function withdraw() public payable{\n        //Function to withdraw the ammount of bid to return\n   \n        \n        require(highestBid>0,\"Bid is equal to zero, nothing to withdraw\");\n        require(msg.sender != highestBidder,\"Highest Bidder cannot withdraw\");\n        \n        if (msg.sender == owner){\n             payable(msg.sender).transfer(userBalances[highestBidder]);\n            \n        } \n        else if (msg.sender != highestBidder) {\n            payable(msg.sender).transfer(userBalances[msg.sender]);   \n        }\n    } \n    \n\n    function canWithdraw () public view  returns(bool){\n        if(highestBid>0){\n            return true;\n        }\n        return false;\n    }\n    \n    \n    receive() external payable{}\n    \n}\n",
  "sourcePath": "/home/dimi/Documents/assignment3_blockchain_2595/contracts/Auction.sol",
  "compiler": {
    "name": "solc",
    "version": "0.8.3+commit.8d00100c.Emscripten.clang"
  },
  "schemaVersion": "3.4.0",
  "updatedAt": "2021-05-07T20:52:31.249Z",
  "networkType": "ethereum",
  "devdoc": {
    "kind": "dev",
    "methods": {},
    "version": 1
  },
  "userdoc": {
    "kind": "user",
    "methods": {},
    "version": 1
  }
}